{
    "contractName": "ArtPiece",
    "abi": [
        {
            "inputs": [],
            "stateMutability": "nonpayable",
            "type": "constructor"
        },
        {
            "anonymous": false,
            "inputs": [
                {
                    "indexed": true,
                    "internalType": "address",
                    "name": "owner",
                    "type": "address"
                },
                {
                    "indexed": true,
                    "internalType": "address",
                    "name": "approved",
                    "type": "address"
                },
                {
                    "indexed": true,
                    "internalType": "uint256",
                    "name": "tokenId",
                    "type": "uint256"
                }
            ],
            "name": "Approval",
            "type": "event"
        },
        {
            "anonymous": false,
            "inputs": [
                {
                    "indexed": true,
                    "internalType": "address",
                    "name": "owner",
                    "type": "address"
                },
                {
                    "indexed": true,
                    "internalType": "address",
                    "name": "operator",
                    "type": "address"
                },
                {
                    "indexed": false,
                    "internalType": "bool",
                    "name": "approved",
                    "type": "bool"
                }
            ],
            "name": "ApprovalForAll",
            "type": "event"
        },
        {
            "anonymous": false,
            "inputs": [
                {
                    "indexed": true,
                    "internalType": "address",
                    "name": "from",
                    "type": "address"
                },
                {
                    "indexed": true,
                    "internalType": "address",
                    "name": "to",
                    "type": "address"
                },
                {
                    "indexed": true,
                    "internalType": "uint256",
                    "name": "tokenId",
                    "type": "uint256"
                }
            ],
            "name": "Transfer",
            "type": "event"
        },
        {
            "inputs": [
                {
                    "internalType": "address",
                    "name": "to",
                    "type": "address"
                },
                {
                    "internalType": "uint256",
                    "name": "tokenId",
                    "type": "uint256"
                }
            ],
            "name": "approve",
            "outputs": [],
            "stateMutability": "nonpayable",
            "type": "function"
        },
        {
            "inputs": [
                {
                    "internalType": "address",
                    "name": "player",
                    "type": "address"
                },
                {
                    "internalType": "string",
                    "name": "tokenURI",
                    "type": "string"
                }
            ],
            "name": "awardItem",
            "outputs": [
                {
                    "internalType": "uint256",
                    "name": "",
                    "type": "uint256"
                }
            ],
            "stateMutability": "nonpayable",
            "type": "function"
        },
        {
            "inputs": [
                {
                    "internalType": "address",
                    "name": "owner",
                    "type": "address"
                }
            ],
            "name": "balanceOf",
            "outputs": [
                {
                    "internalType": "uint256",
                    "name": "",
                    "type": "uint256"
                }
            ],
            "stateMutability": "view",
            "type": "function"
        },
        {
            "inputs": [],
            "name": "baseURI",
            "outputs": [
                {
                    "internalType": "string",
                    "name": "",
                    "type": "string"
                }
            ],
            "stateMutability": "view",
            "type": "function"
        },
        {
            "inputs": [
                {
                    "internalType": "uint256",
                    "name": "tokenId",
                    "type": "uint256"
                }
            ],
            "name": "getApproved",
            "outputs": [
                {
                    "internalType": "address",
                    "name": "",
                    "type": "address"
                }
            ],
            "stateMutability": "view",
            "type": "function"
        },
        {
            "inputs": [
                {
                    "internalType": "address",
                    "name": "owner",
                    "type": "address"
                },
                {
                    "internalType": "address",
                    "name": "operator",
                    "type": "address"
                }
            ],
            "name": "isApprovedForAll",
            "outputs": [
                {
                    "internalType": "bool",
                    "name": "",
                    "type": "bool"
                }
            ],
            "stateMutability": "view",
            "type": "function"
        },
        {
            "inputs": [],
            "name": "name",
            "outputs": [
                {
                    "internalType": "string",
                    "name": "",
                    "type": "string"
                }
            ],
            "stateMutability": "view",
            "type": "function"
        },
        {
            "inputs": [
                {
                    "internalType": "uint256",
                    "name": "tokenId",
                    "type": "uint256"
                }
            ],
            "name": "ownerOf",
            "outputs": [
                {
                    "internalType": "address",
                    "name": "",
                    "type": "address"
                }
            ],
            "stateMutability": "view",
            "type": "function"
        },
        {
            "inputs": [
                {
                    "internalType": "address",
                    "name": "from",
                    "type": "address"
                },
                {
                    "internalType": "address",
                    "name": "to",
                    "type": "address"
                },
                {
                    "internalType": "uint256",
                    "name": "tokenId",
                    "type": "uint256"
                }
            ],
            "name": "safeTransferFrom",
            "outputs": [],
            "stateMutability": "nonpayable",
            "type": "function"
        },
        {
            "inputs": [
                {
                    "internalType": "address",
                    "name": "from",
                    "type": "address"
                },
                {
                    "internalType": "address",
                    "name": "to",
                    "type": "address"
                },
                {
                    "internalType": "uint256",
                    "name": "tokenId",
                    "type": "uint256"
                },
                {
                    "internalType": "bytes",
                    "name": "_data",
                    "type": "bytes"
                }
            ],
            "name": "safeTransferFrom",
            "outputs": [],
            "stateMutability": "nonpayable",
            "type": "function"
        },
        {
            "inputs": [
                {
                    "internalType": "address",
                    "name": "operator",
                    "type": "address"
                },
                {
                    "internalType": "bool",
                    "name": "approved",
                    "type": "bool"
                }
            ],
            "name": "setApprovalForAll",
            "outputs": [],
            "stateMutability": "nonpayable",
            "type": "function"
        },
        {
            "inputs": [
                {
                    "internalType": "bytes4",
                    "name": "interfaceId",
                    "type": "bytes4"
                }
            ],
            "name": "supportsInterface",
            "outputs": [
                {
                    "internalType": "bool",
                    "name": "",
                    "type": "bool"
                }
            ],
            "stateMutability": "view",
            "type": "function"
        },
        {
            "inputs": [],
            "name": "symbol",
            "outputs": [
                {
                    "internalType": "string",
                    "name": "",
                    "type": "string"
                }
            ],
            "stateMutability": "view",
            "type": "function"
        },
        {
            "inputs": [
                {
                    "internalType": "uint256",
                    "name": "index",
                    "type": "uint256"
                }
            ],
            "name": "tokenByIndex",
            "outputs": [
                {
                    "internalType": "uint256",
                    "name": "",
                    "type": "uint256"
                }
            ],
            "stateMutability": "view",
            "type": "function"
        },
        {
            "inputs": [
                {
                    "internalType": "address",
                    "name": "owner",
                    "type": "address"
                },
                {
                    "internalType": "uint256",
                    "name": "index",
                    "type": "uint256"
                }
            ],
            "name": "tokenOfOwnerByIndex",
            "outputs": [
                {
                    "internalType": "uint256",
                    "name": "",
                    "type": "uint256"
                }
            ],
            "stateMutability": "view",
            "type": "function"
        },
        {
            "inputs": [
                {
                    "internalType": "uint256",
                    "name": "tokenId",
                    "type": "uint256"
                }
            ],
            "name": "tokenURI",
            "outputs": [
                {
                    "internalType": "string",
                    "name": "",
                    "type": "string"
                }
            ],
            "stateMutability": "view",
            "type": "function"
        },
        {
            "inputs": [],
            "name": "totalSupply",
            "outputs": [
                {
                    "internalType": "uint256",
                    "name": "",
                    "type": "uint256"
                }
            ],
            "stateMutability": "view",
            "type": "function"
        },
        {
            "inputs": [
                {
                    "internalType": "address",
                    "name": "from",
                    "type": "address"
                },
                {
                    "internalType": "address",
                    "name": "to",
                    "type": "address"
                },
                {
                    "internalType": "uint256",
                    "name": "tokenId",
                    "type": "uint256"
                }
            ],
            "name": "transferFrom",
            "outputs": [],
            "stateMutability": "nonpayable",
            "type": "function"
        }
    ],
    "bytecode": "60806040523480156200001157600080fd5b506040805180820182526008815267417274506965636560c01b602080830191909152825180840190935260048352634152543160e01b9083015290620000686301ffc9a760e01b6001600160e01b03620000ed16565b81516200007d90600690602085019062000172565b5080516200009390600790602084019062000172565b50620000af6380ac58cd60e01b6001600160e01b03620000ed16565b620000ca635b5e139f60e01b6001600160e01b03620000ed16565b620000e563780e9d6360e01b6001600160e01b03620000ed16565b505062000217565b6001600160e01b031980821614156200014d576040805162461bcd60e51b815260206004820152601c60248201527f4552433136353a20696e76616c696420696e7465726661636520696400000000604482015290519081900360640190fd5b6001600160e01b0319166000908152602081905260409020805460ff19166001179055565b828054600181600116156101000203166002900490600052602060002090601f016020900481019282601f10620001b557805160ff1916838001178555620001e5565b82800160010185558215620001e5579182015b82811115620001e5578251825591602001919060010190620001c8565b50620001f3929150620001f7565b5090565b6200021491905b80821115620001f35760008155600101620001fe565b90565b611d2780620002276000396000f3fe608060405234801561001057600080fd5b50600436106101165760003560e01c80636352211e116100a2578063a22cb46511610071578063a22cb4651461035c578063b88d4fde1461038a578063c87b56dd14610450578063cf3783431461046d578063e985e9c51461052357610116565b80636352211e146103095780636c0360eb1461032657806370a082311461032e57806395d89b411461035457610116565b806318160ddd116100e957806318160ddd1461023a57806323b872dd146102545780632f745c591461028a57806342842e0e146102b65780634f6ccce7146102ec57610116565b806301ffc9a71461011b57806306fdde0314610156578063081812fc146101d3578063095ea7b31461020c575b600080fd5b6101426004803603602081101561013157600080fd5b50356001600160e01b031916610551565b604080519115158252519081900360200190f35b61015e610574565b6040805160208082528351818301528351919283929083019185019080838360005b83811015610198578181015183820152602001610180565b50505050905090810190601f1680156101c55780820380516001836020036101000a031916815260200191505b509250505060405180910390f35b6101f0600480360360208110156101e957600080fd5b503561060b565b604080516001600160a01b039092168252519081900360200190f35b6102386004803603604081101561022257600080fd5b506001600160a01b03813516906020013561066d565b005b610242610748565b60408051918252519081900360200190f35b6102386004803603606081101561026a57600080fd5b506001600160a01b03813581169160208101359091169060400135610759565b610242600480360360408110156102a057600080fd5b506001600160a01b0381351690602001356107b0565b610238600480360360608110156102cc57600080fd5b506001600160a01b038135811691602081013590911690604001356107e1565b6102426004803603602081101561030257600080fd5b50356107fc565b6101f06004803603602081101561031f57600080fd5b5035610818565b61015e610846565b6102426004803603602081101561034457600080fd5b50356001600160a01b03166108a7565b61015e61090f565b6102386004803603604081101561037257600080fd5b506001600160a01b0381351690602001351515610970565b610238600480360360808110156103a057600080fd5b6001600160a01b038235811692602081013590911691604082013591908101906080810160608201356401000000008111156103db57600080fd5b8201836020820111156103ed57600080fd5b8035906020019184600183028401116401000000008311171561040f57600080fd5b91908080601f016020809104026020016040519081016040528093929190818152602001838380828437600092019190915250929550610a75945050505050565b61015e6004803603602081101561046657600080fd5b5035610ad3565b6102426004803603604081101561048357600080fd5b6001600160a01b0382351691908101906040810160208201356401000000008111156104ae57600080fd5b8201836020820111156104c057600080fd5b803590602001918460018302840111640100000000831117156104e257600080fd5b91908080601f016020809104026020016040519081016040528093929190818152602001838380828437600092019190915250929550610d7a945050505050565b6101426004803603604081101561053957600080fd5b506001600160a01b0381358116916020013516610da8565b6001600160e01b0319811660009081526020819052604090205460ff165b919050565b60068054604080516020601f60026000196101006001881615020190951694909404938401819004810282018101909252828152606093909290918301828280156106005780601f106105d557610100808354040283529160200191610600565b820191906000526020600020905b8154815290600101906020018083116105e357829003601f168201915b505050505090505b90565b600061061682610dd6565b6106515760405162461bcd60e51b815260040180806020018281038252602c815260200180611bf0602c913960400191505060405180910390fd5b506000908152600460205260409020546001600160a01b031690565b600061067882610818565b9050806001600160a01b0316836001600160a01b031614156106cb5760405162461bcd60e51b8152600401808060200182810382526021815260200180611ca06021913960400191505060405180910390fd5b806001600160a01b03166106dd610de9565b6001600160a01b031614806106fe57506106fe816106f9610de9565b610da8565b6107395760405162461bcd60e51b8152600401808060200182810382526038815260200180611b436038913960400191505060405180910390fd5b6107438383610ded565b505050565b60006107546002610e5b565b905090565b61076a610764610de9565b82610e66565b6107a55760405162461bcd60e51b8152600401808060200182810382526031815260200180611cc16031913960400191505060405180910390fd5b610743838383610f0a565b6001600160a01b03821660009081526001602052604081206107d8908363ffffffff61106816565b90505b92915050565b61074383838360405180602001604052806000815250610a75565b60008061081060028463ffffffff61107416565b509392505050565b60006107db82604051806060016040528060298152602001611ba5602991396002919063ffffffff61109016565b60098054604080516020601f60026000196101006001881615020190951694909404938401819004810282018101909252828152606093909290918301828280156106005780601f106105d557610100808354040283529160200191610600565b60006001600160a01b0382166108ee5760405162461bcd60e51b815260040180806020018281038252602a815260200180611b7b602a913960400191505060405180910390fd5b6001600160a01b03821660009081526001602052604090206107db90610e5b565b60078054604080516020601f60026000196101006001881615020190951694909404938401819004810282018101909252828152606093909290918301828280156106005780601f106105d557610100808354040283529160200191610600565b610978610de9565b6001600160a01b0316826001600160a01b031614156109de576040805162461bcd60e51b815260206004820152601960248201527f4552433732313a20617070726f766520746f2063616c6c657200000000000000604482015290519081900360640190fd5b80600560006109eb610de9565b6001600160a01b03908116825260208083019390935260409182016000908120918716808252919093529120805460ff191692151592909217909155610a2f610de9565b60408051841515815290516001600160a01b0392909216917f17307eab39ab6107e8899845ad3d59bd9653f200f220920489ca2b5937696c319181900360200190a35050565b610a86610a80610de9565b83610e66565b610ac15760405162461bcd60e51b8152600401808060200182810382526031815260200180611cc16031913960400191505060405180910390fd5b610acd848484846110a7565b50505050565b6060610ade82610dd6565b610b195760405162461bcd60e51b815260040180806020018281038252602f815260200180611c71602f913960400191505060405180910390fd5b60008281526008602090815260409182902080548351601f6002600019610100600186161502019093169290920491820184900484028101840190945280845260609392830182828015610bae5780601f10610b8357610100808354040283529160200191610bae565b820191906000526020600020905b815481529060010190602001808311610b9157829003601f168201915b505060095493945050505060026000196101006001841615020190911604610bd757905061056f565b805115610ca8576009816040516020018083805460018160011615610100020316600290048015610c3f5780601f10610c1d576101008083540402835291820191610c3f565b820191906000526020600020905b815481529060010190602001808311610c2b575b5050825160208401908083835b60208310610c6b5780518252601f199092019160209182019101610c4c565b6001836020036101000a0380198251168184511680821785525050505050509050019250505060405160208183030381529060405291505061056f565b6009610cb3846110f9565b6040516020018083805460018160011615610100020316600290048015610d115780601f10610cef576101008083540402835291820191610d11565b820191906000526020600020905b815481529060010190602001808311610cfd575b5050825160208401908083835b60208310610d3d5780518252601f199092019160209182019101610d1e565b6001836020036101000a03801982511681845116808217855250505050505090500192505050604051602081830303815290604052915050919050565b6000610d86600a6111bd565b6000610d92600a6111c6565b9050610d9e84826111ca565b6107d88184611304565b6001600160a01b03918216600090815260056020908152604080832093909416825291909152205460ff1690565b60006107db60028363ffffffff61136716565b3390565b600081815260046020526040902080546001600160a01b0319166001600160a01b0384169081179091558190610e2282610818565b6001600160a01b03167f8c5be1e5ebec7d5bd14f71427d1e84f3dd0314c0f7b2291e5b200ac8c7c3b92560405160405180910390a45050565b60006107db826111c6565b6000610e7182610dd6565b610eac5760405162461bcd60e51b815260040180806020018281038252602c815260200180611b17602c913960400191505060405180910390fd5b6000610eb783610818565b9050806001600160a01b0316846001600160a01b03161480610ef25750836001600160a01b0316610ee78461060b565b6001600160a01b0316145b80610f025750610f028185610da8565b949350505050565b826001600160a01b0316610f1d82610818565b6001600160a01b031614610f625760405162461bcd60e51b8152600401808060200182810382526029815260200180611c486029913960400191505060405180910390fd5b6001600160a01b038216610fa75760405162461bcd60e51b8152600401808060200182810382526024815260200180611af36024913960400191505060405180910390fd5b610fb2838383610743565b610fbd600082610ded565b6001600160a01b0383166000908152600160205260409020610fe5908263ffffffff61137316565b506001600160a01b038216600090815260016020526040902061100e908263ffffffff61137f16565b506110216002828463ffffffff61138b16565b5080826001600160a01b0316846001600160a01b03167fddf252ad1be2c89b69c2b068fc378daa952ba7f163c4a11628f55a4df523b3ef60405160405180910390a4505050565b60006107d883836113a1565b60008080806110838686611405565b9097909650945050505050565b600061109d848484611480565b90505b9392505050565b6110b2848484610f0a565b6110be8484848461154a565b610acd5760405162461bcd60e51b8152600401808060200182810382526032815260200180611ac16032913960400191505060405180910390fd5b60608161111e57506040805180820190915260018152600360fc1b602082015261056f565b8160005b811561113657600101600a82049150611122565b6060816040519080825280601f01601f191660200182016040528015611163576020820181803883390190505b50859350905060001982015b83156111b457600a840660300160f81b8282806001900393508151811061119257fe5b60200101906001600160f81b031916908160001a905350600a8404935061116f565b50949350505050565b80546001019055565b5490565b6001600160a01b038216611225576040805162461bcd60e51b815260206004820181905260248201527f4552433732313a206d696e7420746f20746865207a65726f2061646472657373604482015290519081900360640190fd5b61122e81610dd6565b15611280576040805162461bcd60e51b815260206004820152601c60248201527f4552433732313a20746f6b656e20616c7265616479206d696e74656400000000604482015290519081900360640190fd5b61128c60008383610743565b6001600160a01b03821660009081526001602052604090206112b4908263ffffffff61137f16565b506112c76002828463ffffffff61138b16565b5060405181906001600160a01b038416906000907fddf252ad1be2c89b69c2b068fc378daa952ba7f163c4a11628f55a4df523b3ef908290a45050565b61130d82610dd6565b6113485760405162461bcd60e51b815260040180806020018281038252602c815260200180611c1c602c913960400191505060405180910390fd5b6000828152600860209081526040909120825161074392840190611a06565b60006107d883836116ca565b60006107d883836116e2565b60006107d883836117a8565b600061109d84846001600160a01b0385166117f2565b815460009082106113e35760405162461bcd60e51b8152600401808060200182810382526022815260200180611a9f6022913960400191505060405180910390fd5b8260000182815481106113f257fe5b9060005260206000200154905092915050565b8154600090819083106114495760405162461bcd60e51b8152600401808060200182810382526022815260200180611bce6022913960400191505060405180910390fd5b600084600001848154811061145a57fe5b906000526020600020906002020190508060000154816001015492509250509250929050565b6000828152600184016020526040812054828161151b5760405162461bcd60e51b81526004018080602001828103825283818151815260200191508051906020019080838360005b838110156114e05781810151838201526020016114c8565b50505050905090810190601f16801561150d5780820380516001836020036101000a031916815260200191505b509250505060405180910390fd5b5084600001600182038154811061152e57fe5b9060005260206000209060020201600101549150509392505050565b600061155e846001600160a01b0316611889565b61156a57506001610f02565b6060611690630a85bd0160e11b61157f610de9565b88878760405160240180856001600160a01b03166001600160a01b03168152602001846001600160a01b03166001600160a01b0316815260200183815260200180602001828103825283818151815260200191508051906020019080838360005b838110156115f85781810151838201526020016115e0565b50505050905090810190601f1680156116255780820380516001836020036101000a031916815260200191505b5095505050505050604051602081830303815290604052906001600160e01b0319166020820180516001600160e01b038381831617835250505050604051806060016040528060328152602001611ac1603291396001600160a01b038816919063ffffffff61188f16565b905060008180602001905160208110156116a957600080fd5b50516001600160e01b031916630a85bd0160e11b1492505050949350505050565b60009081526001919091016020526040902054151590565b6000818152600183016020526040812054801561179e578354600019808301919081019060009087908390811061171557fe5b906000526020600020015490508087600001848154811061173257fe5b60009182526020808320909101929092558281526001898101909252604090209084019055865487908061176257fe5b600190038181906000526020600020016000905590558660010160008781526020019081526020016000206000905560019450505050506107db565b60009150506107db565b60006117b483836116ca565b6117ea575081546001818101845560008481526020808220909301849055845484825282860190935260409020919091556107db565b5060006107db565b6000828152600184016020526040812054806118575750506040805180820182528381526020808201848152865460018181018955600089815284812095516002909302909501918255915190820155865486845281880190925292909120556110a0565b8285600001600183038154811061186a57fe5b90600052602060002090600202016001018190555060009150506110a0565b3b151590565b606061109d848460008560606118a485611889565b6118f5576040805162461bcd60e51b815260206004820152601d60248201527f416464726573733a2063616c6c20746f206e6f6e2d636f6e7472616374000000604482015290519081900360640190fd5b60006060866001600160a01b031685876040518082805190602001908083835b602083106119345780518252601f199092019160209182019101611915565b6001836020036101000a03801982511681845116808217855250505050505090500191505060006040518083038185875af1925050503d8060008114611996576040519150601f19603f3d011682016040523d82523d6000602084013e61199b565b606091505b509150915081156119af579150610f029050565b8051156119bf5780518082602001fd5b60405162461bcd60e51b81526020600482018181528651602484015286518793919283926044019190850190808383600083156114e05781810151838201526020016114c8565b828054600181600116156101000203166002900490600052602060002090601f016020900481019282601f10611a4757805160ff1916838001178555611a74565b82800160010185558215611a74579182015b82811115611a74578251825591602001919060010190611a59565b50611a80929150611a84565b5090565b61060891905b80821115611a805760008155600101611a8a56fe456e756d657261626c655365743a20696e646578206f7574206f6620626f756e64734552433732313a207472616e7366657220746f206e6f6e20455243373231526563656976657220696d706c656d656e7465724552433732313a207472616e7366657220746f20746865207a65726f20616464726573734552433732313a206f70657261746f7220717565727920666f72206e6f6e6578697374656e7420746f6b656e4552433732313a20617070726f76652063616c6c6572206973206e6f74206f776e6572206e6f7220617070726f76656420666f7220616c6c4552433732313a2062616c616e636520717565727920666f7220746865207a65726f20616464726573734552433732313a206f776e657220717565727920666f72206e6f6e6578697374656e7420746f6b656e456e756d657261626c654d61703a20696e646578206f7574206f6620626f756e64734552433732313a20617070726f76656420717565727920666f72206e6f6e6578697374656e7420746f6b656e4552433732314d657461646174613a2055524920736574206f66206e6f6e6578697374656e7420746f6b656e4552433732313a207472616e73666572206f6620746f6b656e2074686174206973206e6f74206f776e4552433732314d657461646174613a2055524920717565727920666f72206e6f6e6578697374656e7420746f6b656e4552433732313a20617070726f76616c20746f2063757272656e74206f776e65724552433732313a207472616e736665722063616c6c6572206973206e6f74206f776e6572206e6f7220617070726f766564a2646970667358221220b6daaefd663c98783511382b87afefda38912a2d918f8f6d3c8ded31ac7e37a764736f6c63430006020033",
    "sourcePath": "/home/milos/Projects/personal/consenys-final-project/contracts/contracts/Art.sol",
    "compiler": {
        "name": "solc",
        "version": "0.6.2+commit.bacdbe57"
    },
    "functionHashes": {
        "approve(address,uint256)": "095ea7b3",
        "awardItem(address,string)": "cf378343",
        "balanceOf(address)": "70a08231",
        "baseURI()": "6c0360eb",
        "getApproved(uint256)": "081812fc",
        "isApprovedForAll(address,address)": "e985e9c5",
        "name()": "06fdde03",
        "ownerOf(uint256)": "6352211e",
        "safeTransferFrom(address,address,uint256)": "42842e0e",
        "safeTransferFrom(address,address,uint256,bytes)": "b88d4fde",
        "setApprovalForAll(address,bool)": "a22cb465",
        "supportsInterface(bytes4)": "01ffc9a7",
        "symbol()": "95d89b41",
        "tokenByIndex(uint256)": "4f6ccce7",
        "tokenOfOwnerByIndex(address,uint256)": "2f745c59",
        "tokenURI(uint256)": "c87b56dd",
        "totalSupply()": "18160ddd",
        "transferFrom(address,address,uint256)": "23b872dd"
    },
    "gasEstimates": {
        "creation": {
            "codeDepositCost": "1492600",
            "executionCost": "infinite",
            "totalCost": "infinite"
        },
        "external": {
            "approve(address,uint256)": "infinite",
            "awardItem(address,string)": "infinite",
            "balanceOf(address)": "infinite",
            "baseURI()": "infinite",
            "getApproved(uint256)": "infinite",
            "isApprovedForAll(address,address)": "1372",
            "name()": "infinite",
            "ownerOf(uint256)": "infinite",
            "safeTransferFrom(address,address,uint256)": "infinite",
            "safeTransferFrom(address,address,uint256,bytes)": "infinite",
            "setApprovalForAll(address,bool)": "infinite",
            "supportsInterface(bytes4)": "1196",
            "symbol()": "infinite",
            "tokenByIndex(uint256)": "infinite",
            "tokenOfOwnerByIndex(address,uint256)": "infinite",
            "tokenURI(uint256)": "infinite",
            "totalSupply()": "1096",
            "transferFrom(address,address,uint256)": "infinite"
        }
    }
}