{
  "contractName": "ArtPieceOne",
  "abi": [
    {
      "inputs": [],
      "stateMutability": "nonpayable",
      "type": "constructor"
    },
    {
      "anonymous": false,
      "inputs": [
        {
          "indexed": true,
          "internalType": "address",
          "name": "owner",
          "type": "address"
        },
        {
          "indexed": true,
          "internalType": "address",
          "name": "approved",
          "type": "address"
        },
        {
          "indexed": true,
          "internalType": "uint256",
          "name": "tokenId",
          "type": "uint256"
        }
      ],
      "name": "Approval",
      "type": "event"
    },
    {
      "anonymous": false,
      "inputs": [
        {
          "indexed": true,
          "internalType": "address",
          "name": "owner",
          "type": "address"
        },
        {
          "indexed": true,
          "internalType": "address",
          "name": "operator",
          "type": "address"
        },
        {
          "indexed": false,
          "internalType": "bool",
          "name": "approved",
          "type": "bool"
        }
      ],
      "name": "ApprovalForAll",
      "type": "event"
    },
    {
      "anonymous": false,
      "inputs": [
        {
          "indexed": true,
          "internalType": "address",
          "name": "previousOwner",
          "type": "address"
        },
        {
          "indexed": true,
          "internalType": "address",
          "name": "newOwner",
          "type": "address"
        }
      ],
      "name": "OwnershipTransferred",
      "type": "event"
    },
    {
      "anonymous": false,
      "inputs": [
        {
          "indexed": true,
          "internalType": "address",
          "name": "from",
          "type": "address"
        },
        {
          "indexed": true,
          "internalType": "address",
          "name": "to",
          "type": "address"
        },
        {
          "indexed": true,
          "internalType": "uint256",
          "name": "tokenId",
          "type": "uint256"
        }
      ],
      "name": "Transfer",
      "type": "event"
    },
    {
      "inputs": [
        {
          "internalType": "address",
          "name": "to",
          "type": "address"
        },
        {
          "internalType": "uint256",
          "name": "tokenId",
          "type": "uint256"
        }
      ],
      "name": "approve",
      "outputs": [],
      "stateMutability": "nonpayable",
      "type": "function"
    },
    {
      "inputs": [
        {
          "internalType": "address",
          "name": "owner",
          "type": "address"
        }
      ],
      "name": "balanceOf",
      "outputs": [
        {
          "internalType": "uint256",
          "name": "",
          "type": "uint256"
        }
      ],
      "stateMutability": "view",
      "type": "function",
      "constant": true
    },
    {
      "inputs": [],
      "name": "baseURI",
      "outputs": [
        {
          "internalType": "string",
          "name": "",
          "type": "string"
        }
      ],
      "stateMutability": "view",
      "type": "function",
      "constant": true
    },
    {
      "inputs": [
        {
          "internalType": "uint256",
          "name": "tokenId",
          "type": "uint256"
        }
      ],
      "name": "getApproved",
      "outputs": [
        {
          "internalType": "address",
          "name": "",
          "type": "address"
        }
      ],
      "stateMutability": "view",
      "type": "function",
      "constant": true
    },
    {
      "inputs": [
        {
          "internalType": "address",
          "name": "owner",
          "type": "address"
        },
        {
          "internalType": "address",
          "name": "operator",
          "type": "address"
        }
      ],
      "name": "isApprovedForAll",
      "outputs": [
        {
          "internalType": "bool",
          "name": "",
          "type": "bool"
        }
      ],
      "stateMutability": "view",
      "type": "function",
      "constant": true
    },
    {
      "inputs": [],
      "name": "name",
      "outputs": [
        {
          "internalType": "string",
          "name": "",
          "type": "string"
        }
      ],
      "stateMutability": "view",
      "type": "function",
      "constant": true
    },
    {
      "inputs": [
        {
          "internalType": "uint256",
          "name": "tokenId",
          "type": "uint256"
        }
      ],
      "name": "ownerOf",
      "outputs": [
        {
          "internalType": "address",
          "name": "",
          "type": "address"
        }
      ],
      "stateMutability": "view",
      "type": "function",
      "constant": true
    },
    {
      "inputs": [
        {
          "internalType": "address",
          "name": "from",
          "type": "address"
        },
        {
          "internalType": "address",
          "name": "to",
          "type": "address"
        },
        {
          "internalType": "uint256",
          "name": "tokenId",
          "type": "uint256"
        }
      ],
      "name": "safeTransferFrom",
      "outputs": [],
      "stateMutability": "nonpayable",
      "type": "function"
    },
    {
      "inputs": [
        {
          "internalType": "address",
          "name": "from",
          "type": "address"
        },
        {
          "internalType": "address",
          "name": "to",
          "type": "address"
        },
        {
          "internalType": "uint256",
          "name": "tokenId",
          "type": "uint256"
        },
        {
          "internalType": "bytes",
          "name": "_data",
          "type": "bytes"
        }
      ],
      "name": "safeTransferFrom",
      "outputs": [],
      "stateMutability": "nonpayable",
      "type": "function"
    },
    {
      "inputs": [
        {
          "internalType": "address",
          "name": "operator",
          "type": "address"
        },
        {
          "internalType": "bool",
          "name": "approved",
          "type": "bool"
        }
      ],
      "name": "setApprovalForAll",
      "outputs": [],
      "stateMutability": "nonpayable",
      "type": "function"
    },
    {
      "inputs": [
        {
          "internalType": "bytes4",
          "name": "interfaceId",
          "type": "bytes4"
        }
      ],
      "name": "supportsInterface",
      "outputs": [
        {
          "internalType": "bool",
          "name": "",
          "type": "bool"
        }
      ],
      "stateMutability": "view",
      "type": "function",
      "constant": true
    },
    {
      "inputs": [],
      "name": "symbol",
      "outputs": [
        {
          "internalType": "string",
          "name": "",
          "type": "string"
        }
      ],
      "stateMutability": "view",
      "type": "function",
      "constant": true
    },
    {
      "inputs": [
        {
          "internalType": "uint256",
          "name": "index",
          "type": "uint256"
        }
      ],
      "name": "tokenByIndex",
      "outputs": [
        {
          "internalType": "uint256",
          "name": "",
          "type": "uint256"
        }
      ],
      "stateMutability": "view",
      "type": "function",
      "constant": true
    },
    {
      "inputs": [
        {
          "internalType": "address",
          "name": "owner",
          "type": "address"
        },
        {
          "internalType": "uint256",
          "name": "index",
          "type": "uint256"
        }
      ],
      "name": "tokenOfOwnerByIndex",
      "outputs": [
        {
          "internalType": "uint256",
          "name": "",
          "type": "uint256"
        }
      ],
      "stateMutability": "view",
      "type": "function",
      "constant": true
    },
    {
      "inputs": [
        {
          "internalType": "uint256",
          "name": "tokenId",
          "type": "uint256"
        }
      ],
      "name": "tokenURI",
      "outputs": [
        {
          "internalType": "string",
          "name": "",
          "type": "string"
        }
      ],
      "stateMutability": "view",
      "type": "function",
      "constant": true
    },
    {
      "inputs": [],
      "name": "totalSupply",
      "outputs": [
        {
          "internalType": "uint256",
          "name": "",
          "type": "uint256"
        }
      ],
      "stateMutability": "view",
      "type": "function",
      "constant": true
    },
    {
      "inputs": [
        {
          "internalType": "address",
          "name": "from",
          "type": "address"
        },
        {
          "internalType": "address",
          "name": "to",
          "type": "address"
        },
        {
          "internalType": "uint256",
          "name": "tokenId",
          "type": "uint256"
        }
      ],
      "name": "transferFrom",
      "outputs": [],
      "stateMutability": "nonpayable",
      "type": "function"
    },
    {
      "inputs": [
        {
          "internalType": "address",
          "name": "user",
          "type": "address"
        },
        {
          "internalType": "string",
          "name": "tokenURI",
          "type": "string"
        }
      ],
      "name": "tokenizeGeneratedArt",
      "outputs": [
        {
          "internalType": "uint256",
          "name": "",
          "type": "uint256"
        }
      ],
      "stateMutability": "payable",
      "type": "function",
      "payable": true
    },
    {
      "inputs": [
        {
          "internalType": "address",
          "name": "newOwner",
          "type": "address"
        }
      ],
      "name": "transferOwnership",
      "outputs": [],
      "stateMutability": "payable",
      "type": "function",
      "payable": true
    }
  ],
  "bytecode": "0x60806040523480156200001157600080fd5b50604080518082018252600b81526a41727450696563654f6e6560a81b602080830191909152825180840190935260048352634152543160e01b90830152906200006b6301ffc9a760e01b6001600160e01b036200013316565b815162000080906006906020850190620001b8565b50805162000096906007906020840190620001b8565b50620000b26380ac58cd60e01b6001600160e01b036200013316565b620000cd635b5e139f60e01b6001600160e01b036200013316565b620000e863780e9d6360e01b6001600160e01b036200013316565b5050600b80546001600160a01b0319163390811790915560405181906000907f8be0079c531659141344cd1fd0a4f28419497f9722a3daafe3b4186f6b6457e0908290a3506200025d565b6001600160e01b0319808216141562000193576040805162461bcd60e51b815260206004820152601c60248201527f4552433136353a20696e76616c696420696e7465726661636520696400000000604482015290519081900360640190fd5b6001600160e01b0319166000908152602081905260409020805460ff19166001179055565b828054600181600116156101000203166002900490600052602060002090601f016020900481019282601f10620001fb57805160ff19168380011785556200022b565b828001600101855582156200022b579182015b828111156200022b5782518255916020019190600101906200020e565b50620002399291506200023d565b5090565b6200025a91905b8082111562000239576000815560010162000244565b90565b611f16806200026d6000396000f3fe6080604052600436106101145760003560e01c80636352211e116100a0578063a22cb46511610064578063a22cb465146104b9578063b88d4fde146104f4578063c87b56dd146105c7578063e985e9c5146105f1578063f2fde38b1461062c57610114565b80636352211e1461037c5780636c0360eb146103a657806370a08231146103bb578063856ad8f8146103ee57806395d89b41146104a457610114565b806318160ddd116100e757806318160ddd1461026c57806323b872dd146102935780632f745c59146102d657806342842e0e1461030f5780634f6ccce71461035257610114565b806301ffc9a71461011957806306fdde0314610161578063081812fc146101eb578063095ea7b314610231575b600080fd5b34801561012557600080fd5b5061014d6004803603602081101561013c57600080fd5b50356001600160e01b031916610652565b604080519115158252519081900360200190f35b34801561016d57600080fd5b50610176610675565b6040805160208082528351818301528351919283929083019185019080838360005b838110156101b0578181015183820152602001610198565b50505050905090810190601f1680156101dd5780820380516001836020036101000a031916815260200191505b509250505060405180910390f35b3480156101f757600080fd5b506102156004803603602081101561020e57600080fd5b503561070c565b604080516001600160a01b039092168252519081900360200190f35b34801561023d57600080fd5b5061026a6004803603604081101561025457600080fd5b506001600160a01b03813516906020013561076e565b005b34801561027857600080fd5b50610281610849565b60408051918252519081900360200190f35b34801561029f57600080fd5b5061026a600480360360608110156102b657600080fd5b506001600160a01b0381358116916020810135909116906040013561085a565b3480156102e257600080fd5b50610281600480360360408110156102f957600080fd5b506001600160a01b0381351690602001356108b1565b34801561031b57600080fd5b5061026a6004803603606081101561033257600080fd5b506001600160a01b038135811691602081013590911690604001356108e2565b34801561035e57600080fd5b506102816004803603602081101561037557600080fd5b50356108fd565b34801561038857600080fd5b506102156004803603602081101561039f57600080fd5b5035610919565b3480156103b257600080fd5b50610176610947565b3480156103c757600080fd5b50610281600480360360208110156103de57600080fd5b50356001600160a01b03166109a8565b6102816004803603604081101561040457600080fd5b6001600160a01b03823516919081019060408101602082013564010000000081111561042f57600080fd5b82018360208201111561044157600080fd5b8035906020019184600183028401116401000000008311171561046357600080fd5b91908080601f016020809104026020016040519081016040528093929190818152602001838380828437600092019190915250929550610a10945050505050565b3480156104b057600080fd5b50610176610a51565b3480156104c557600080fd5b5061026a600480360360408110156104dc57600080fd5b506001600160a01b0381351690602001351515610ab2565b34801561050057600080fd5b5061026a6004803603608081101561051757600080fd5b6001600160a01b0382358116926020810135909116916040820135919081019060808101606082013564010000000081111561055257600080fd5b82018360208201111561056457600080fd5b8035906020019184600183028401116401000000008311171561058657600080fd5b91908080601f016020809104026020016040519081016040528093929190818152602001838380828437600092019190915250929550610bb7945050505050565b3480156105d357600080fd5b50610176600480360360208110156105ea57600080fd5b5035610c15565b3480156105fd57600080fd5b5061014d6004803603604081101561061457600080fd5b506001600160a01b0381358116916020013516610ebc565b61026a6004803603602081101561064257600080fd5b50356001600160a01b0316610eea565b6001600160e01b0319811660009081526020819052604090205460ff165b919050565b60068054604080516020601f60026000196101006001881615020190951694909404938401819004810282018101909252828152606093909290918301828280156107015780601f106106d657610100808354040283529160200191610701565b820191906000526020600020905b8154815290600101906020018083116106e457829003601f168201915b505050505090505b90565b600061071782610f9f565b6107525760405162461bcd60e51b815260040180806020018281038252602c815260200180611ddf602c913960400191505060405180910390fd5b506000908152600460205260409020546001600160a01b031690565b600061077982610919565b9050806001600160a01b0316836001600160a01b031614156107cc5760405162461bcd60e51b8152600401808060200182810382526021815260200180611e8f6021913960400191505060405180910390fd5b806001600160a01b03166107de610fb2565b6001600160a01b031614806107ff57506107ff816107fa610fb2565b610ebc565b61083a5760405162461bcd60e51b8152600401808060200182810382526038815260200180611d326038913960400191505060405180910390fd5b6108448383610fb6565b505050565b60006108556002611024565b905090565b61086b610865610fb2565b8261102f565b6108a65760405162461bcd60e51b8152600401808060200182810382526031815260200180611eb06031913960400191505060405180910390fd5b6108448383836110d3565b6001600160a01b03821660009081526001602052604081206108d9908363ffffffff61123116565b90505b92915050565b61084483838360405180602001604052806000815250610bb7565b60008061091160028463ffffffff61123d16565b509392505050565b60006108dc82604051806060016040528060298152602001611d94602991396002919063ffffffff61125916565b60098054604080516020601f60026000196101006001881615020190951694909404938401819004810282018101909252828152606093909290918301828280156107015780601f106106d657610100808354040283529160200191610701565b60006001600160a01b0382166109ef5760405162461bcd60e51b815260040180806020018281038252602a815260200180611d6a602a913960400191505060405180910390fd5b6001600160a01b03821660009081526001602052604090206108dc90611024565b60003466470de4df82000014610a2557600080fd5b610a2f600a611270565b6000610a3b600a611279565b9050610a47848261127d565b6108d981846113b7565b60078054604080516020601f60026000196101006001881615020190951694909404938401819004810282018101909252828152606093909290918301828280156107015780601f106106d657610100808354040283529160200191610701565b610aba610fb2565b6001600160a01b0316826001600160a01b03161415610b20576040805162461bcd60e51b815260206004820152601960248201527f4552433732313a20617070726f766520746f2063616c6c657200000000000000604482015290519081900360640190fd5b8060056000610b2d610fb2565b6001600160a01b03908116825260208083019390935260409182016000908120918716808252919093529120805460ff191692151592909217909155610b71610fb2565b60408051841515815290516001600160a01b0392909216917f17307eab39ab6107e8899845ad3d59bd9653f200f220920489ca2b5937696c319181900360200190a35050565b610bc8610bc2610fb2565b8361102f565b610c035760405162461bcd60e51b8152600401808060200182810382526031815260200180611eb06031913960400191505060405180910390fd5b610c0f8484848461141a565b50505050565b6060610c2082610f9f565b610c5b5760405162461bcd60e51b815260040180806020018281038252602f815260200180611e60602f913960400191505060405180910390fd5b60008281526008602090815260409182902080548351601f6002600019610100600186161502019093169290920491820184900484028101840190945280845260609392830182828015610cf05780601f10610cc557610100808354040283529160200191610cf0565b820191906000526020600020905b815481529060010190602001808311610cd357829003601f168201915b505060095493945050505060026000196101006001841615020190911604610d19579050610670565b805115610dea576009816040516020018083805460018160011615610100020316600290048015610d815780601f10610d5f576101008083540402835291820191610d81565b820191906000526020600020905b815481529060010190602001808311610d6d575b5050825160208401908083835b60208310610dad5780518252601f199092019160209182019101610d8e565b6001836020036101000a03801982511681845116808217855250505050505090500192505050604051602081830303815290604052915050610670565b6009610df58461146c565b6040516020018083805460018160011615610100020316600290048015610e535780601f10610e31576101008083540402835291820191610e53565b820191906000526020600020905b815481529060010190602001808311610e3f575b5050825160208401908083835b60208310610e7f5780518252601f199092019160209182019101610e60565b6001836020036101000a03801982511681845116808217855250505050505090500192505050604051602081830303815290604052915050919050565b6001600160a01b03918216600090815260056020908152604080832093909416825291909152205460ff1690565b6001600160a01b038116610f2f5760405162461bcd60e51b8152600401808060200182810382526026815260200180611cbc6026913960400191505060405180910390fd5b34671bc16d674ec8000014610f4357600080fd5b600b546040516001600160a01b038084169216907f8be0079c531659141344cd1fd0a4f28419497f9722a3daafe3b4186f6b6457e090600090a3600b80546001600160a01b0319166001600160a01b0392909216919091179055565b60006108dc60028363ffffffff61153016565b3390565b600081815260046020526040902080546001600160a01b0319166001600160a01b0384169081179091558190610feb82610919565b6001600160a01b03167f8c5be1e5ebec7d5bd14f71427d1e84f3dd0314c0f7b2291e5b200ac8c7c3b92560405160405180910390a45050565b60006108dc82611279565b600061103a82610f9f565b6110755760405162461bcd60e51b815260040180806020018281038252602c815260200180611d06602c913960400191505060405180910390fd5b600061108083610919565b9050806001600160a01b0316846001600160a01b031614806110bb5750836001600160a01b03166110b08461070c565b6001600160a01b0316145b806110cb57506110cb8185610ebc565b949350505050565b826001600160a01b03166110e682610919565b6001600160a01b03161461112b5760405162461bcd60e51b8152600401808060200182810382526029815260200180611e376029913960400191505060405180910390fd5b6001600160a01b0382166111705760405162461bcd60e51b8152600401808060200182810382526024815260200180611ce26024913960400191505060405180910390fd5b61117b838383610844565b611186600082610fb6565b6001600160a01b03831660009081526001602052604090206111ae908263ffffffff61153c16565b506001600160a01b03821660009081526001602052604090206111d7908263ffffffff61154816565b506111ea6002828463ffffffff61155416565b5080826001600160a01b0316846001600160a01b03167fddf252ad1be2c89b69c2b068fc378daa952ba7f163c4a11628f55a4df523b3ef60405160405180910390a4505050565b60006108d9838361156a565b600080808061124c86866115ce565b9097909650945050505050565b6000611266848484611649565b90505b9392505050565b80546001019055565b5490565b6001600160a01b0382166112d8576040805162461bcd60e51b815260206004820181905260248201527f4552433732313a206d696e7420746f20746865207a65726f2061646472657373604482015290519081900360640190fd5b6112e181610f9f565b15611333576040805162461bcd60e51b815260206004820152601c60248201527f4552433732313a20746f6b656e20616c7265616479206d696e74656400000000604482015290519081900360640190fd5b61133f60008383610844565b6001600160a01b0382166000908152600160205260409020611367908263ffffffff61154816565b5061137a6002828463ffffffff61155416565b5060405181906001600160a01b038416906000907fddf252ad1be2c89b69c2b068fc378daa952ba7f163c4a11628f55a4df523b3ef908290a45050565b6113c082610f9f565b6113fb5760405162461bcd60e51b815260040180806020018281038252602c815260200180611e0b602c913960400191505060405180910390fd5b6000828152600860209081526040909120825161084492840190611bcf565b6114258484846110d3565b61143184848484611713565b610c0f5760405162461bcd60e51b8152600401808060200182810382526032815260200180611c8a6032913960400191505060405180910390fd5b60608161149157506040805180820190915260018152600360fc1b6020820152610670565b8160005b81156114a957600101600a82049150611495565b6060816040519080825280601f01601f1916602001820160405280156114d6576020820181803883390190505b50859350905060001982015b831561152757600a840660300160f81b8282806001900393508151811061150557fe5b60200101906001600160f81b031916908160001a905350600a840493506114e2565b50949350505050565b60006108d98383611893565b60006108d983836118ab565b60006108d98383611971565b600061126684846001600160a01b0385166119bb565b815460009082106115ac5760405162461bcd60e51b8152600401808060200182810382526022815260200180611c686022913960400191505060405180910390fd5b8260000182815481106115bb57fe5b9060005260206000200154905092915050565b8154600090819083106116125760405162461bcd60e51b8152600401808060200182810382526022815260200180611dbd6022913960400191505060405180910390fd5b600084600001848154811061162357fe5b906000526020600020906002020190508060000154816001015492509250509250929050565b600082815260018401602052604081205482816116e45760405162461bcd60e51b81526004018080602001828103825283818151815260200191508051906020019080838360005b838110156116a9578181015183820152602001611691565b50505050905090810190601f1680156116d65780820380516001836020036101000a031916815260200191505b509250505060405180910390fd5b508460000160018203815481106116f757fe5b9060005260206000209060020201600101549150509392505050565b6000611727846001600160a01b0316611a52565b611733575060016110cb565b6060611859630a85bd0160e11b611748610fb2565b88878760405160240180856001600160a01b03166001600160a01b03168152602001846001600160a01b03166001600160a01b0316815260200183815260200180602001828103825283818151815260200191508051906020019080838360005b838110156117c15781810151838201526020016117a9565b50505050905090810190601f1680156117ee5780820380516001836020036101000a031916815260200191505b5095505050505050604051602081830303815290604052906001600160e01b0319166020820180516001600160e01b038381831617835250505050604051806060016040528060328152602001611c8a603291396001600160a01b038816919063ffffffff611a5816565b9050600081806020019051602081101561187257600080fd5b50516001600160e01b031916630a85bd0160e11b1492505050949350505050565b60009081526001919091016020526040902054151590565b6000818152600183016020526040812054801561196757835460001980830191908101906000908790839081106118de57fe5b90600052602060002001549050808760000184815481106118fb57fe5b60009182526020808320909101929092558281526001898101909252604090209084019055865487908061192b57fe5b600190038181906000526020600020016000905590558660010160008781526020019081526020016000206000905560019450505050506108dc565b60009150506108dc565b600061197d8383611893565b6119b3575081546001818101845560008481526020808220909301849055845484825282860190935260409020919091556108dc565b5060006108dc565b600082815260018401602052604081205480611a20575050604080518082018252838152602080820184815286546001818101895560008981528481209551600290930290950191825591519082015586548684528188019092529290912055611269565b82856000016001830381548110611a3357fe5b9060005260206000209060020201600101819055506000915050611269565b3b151590565b606061126684846000856060611a6d85611a52565b611abe576040805162461bcd60e51b815260206004820152601d60248201527f416464726573733a2063616c6c20746f206e6f6e2d636f6e7472616374000000604482015290519081900360640190fd5b60006060866001600160a01b031685876040518082805190602001908083835b60208310611afd5780518252601f199092019160209182019101611ade565b6001836020036101000a03801982511681845116808217855250505050505090500191505060006040518083038185875af1925050503d8060008114611b5f576040519150601f19603f3d011682016040523d82523d6000602084013e611b64565b606091505b50915091508115611b785791506110cb9050565b805115611b885780518082602001fd5b60405162461bcd60e51b81526020600482018181528651602484015286518793919283926044019190850190808383600083156116a9578181015183820152602001611691565b828054600181600116156101000203166002900490600052602060002090601f016020900481019282601f10611c1057805160ff1916838001178555611c3d565b82800160010185558215611c3d579182015b82811115611c3d578251825591602001919060010190611c22565b50611c49929150611c4d565b5090565b61070991905b80821115611c495760008155600101611c5356fe456e756d657261626c655365743a20696e646578206f7574206f6620626f756e64734552433732313a207472616e7366657220746f206e6f6e20455243373231526563656976657220696d706c656d656e7465724f776e61626c653a206e6577206f776e657220697320746865207a65726f20616464726573734552433732313a207472616e7366657220746f20746865207a65726f20616464726573734552433732313a206f70657261746f7220717565727920666f72206e6f6e6578697374656e7420746f6b656e4552433732313a20617070726f76652063616c6c6572206973206e6f74206f776e6572206e6f7220617070726f76656420666f7220616c6c4552433732313a2062616c616e636520717565727920666f7220746865207a65726f20616464726573734552433732313a206f776e657220717565727920666f72206e6f6e6578697374656e7420746f6b656e456e756d657261626c654d61703a20696e646578206f7574206f6620626f756e64734552433732313a20617070726f76656420717565727920666f72206e6f6e6578697374656e7420746f6b656e4552433732314d657461646174613a2055524920736574206f66206e6f6e6578697374656e7420746f6b656e4552433732313a207472616e73666572206f6620746f6b656e2074686174206973206e6f74206f776e4552433732314d657461646174613a2055524920717565727920666f72206e6f6e6578697374656e7420746f6b656e4552433732313a20617070726f76616c20746f2063757272656e74206f776e65724552433732313a207472616e736665722063616c6c6572206973206e6f74206f776e6572206e6f7220617070726f766564a2646970667358221220c4f98d8e32816c0bc54bda117e584c331aedefaa3069eca46a48a6a870eea91b64736f6c63430006020033",
  "source": "// SPDX-License-Identifier: MIT\npragma solidity ^0.6.2;\n\nimport \"../node_modules/openzeppelin-solidity/contracts/token/ERC721/ERC721.sol\";\nimport \"../node_modules/openzeppelin-solidity/contracts/utils/Counters.sol\";\n\ncontract ArtPieceOne is ERC721 {\n    using Counters for Counters.Counter;\n    Counters.Counter private _tokenIds;\n    address private _owner;\n    event OwnershipTransferred(\n        address indexed previousOwner,\n        address indexed newOwner\n    );\n\n    constructor() public ERC721(\"ArtPieceOne\", \"ART1\") {\n        address msgSender = msg.sender;\n        _owner = msgSender;\n        emit OwnershipTransferred(address(0), msgSender);\n    }\n\n    function tokenizeGeneratedArt(address user, string memory tokenURI)\n        public\n        payable\n        returns (uint256)\n    {\n        require(msg.value == 0.02 ether);\n        _tokenIds.increment();\n\n        uint256 newItemId = _tokenIds.current();\n        _mint(user, newItemId);\n        _setTokenURI(newItemId, tokenURI);\n\n        return newItemId;\n    }\n\n    function transferOwnership(address newOwner) public payable {\n        require(\n            newOwner != address(0),\n            \"Ownable: new owner is the zero address\"\n        );\n        require(msg.value == 2 ether);\n        emit OwnershipTransferred(_owner, newOwner);\n        _owner = newOwner;\n    }\n}\n",
  "sourcePath": "/home/milos/Projects/personal/consenys-final-project/contracts/contracts/ArtPieceOne.sol",
  "compiler": {
    "name": "solc",
    "version": "0.6.2+commit.bacdbe57.Emscripten.clang"
  },
  "schemaVersion": "3.3.1",
  "updatedAt": "2020-12-01T18:54:29.676Z",
  "networkType": "ethereum",
  "devdoc": {
    "methods": {
      "approve(address,uint256)": {
        "details": "See {IERC721-approve}."
      },
      "balanceOf(address)": {
        "details": "See {IERC721-balanceOf}."
      },
      "baseURI()": {
        "details": "Returns the base URI set via {_setBaseURI}. This will be automatically added as a prefix in {tokenURI} to each token's URI, or to the token ID if no specific URI is set for that token ID."
      },
      "getApproved(uint256)": {
        "details": "See {IERC721-getApproved}."
      },
      "isApprovedForAll(address,address)": {
        "details": "See {IERC721-isApprovedForAll}."
      },
      "name()": {
        "details": "See {IERC721Metadata-name}."
      },
      "ownerOf(uint256)": {
        "details": "See {IERC721-ownerOf}."
      },
      "safeTransferFrom(address,address,uint256)": {
        "details": "See {IERC721-safeTransferFrom}."
      },
      "safeTransferFrom(address,address,uint256,bytes)": {
        "details": "See {IERC721-safeTransferFrom}."
      },
      "setApprovalForAll(address,bool)": {
        "details": "See {IERC721-setApprovalForAll}."
      },
      "supportsInterface(bytes4)": {
        "details": "See {IERC165-supportsInterface}.     * Time complexity O(1), guaranteed to always use less than 30 000 gas."
      },
      "symbol()": {
        "details": "See {IERC721Metadata-symbol}."
      },
      "tokenByIndex(uint256)": {
        "details": "See {IERC721Enumerable-tokenByIndex}."
      },
      "tokenOfOwnerByIndex(address,uint256)": {
        "details": "See {IERC721Enumerable-tokenOfOwnerByIndex}."
      },
      "tokenURI(uint256)": {
        "details": "See {IERC721Metadata-tokenURI}."
      },
      "totalSupply()": {
        "details": "See {IERC721Enumerable-totalSupply}."
      },
      "transferFrom(address,address,uint256)": {
        "details": "See {IERC721-transferFrom}."
      }
    }
  },
  "userdoc": {
    "methods": {}
  }
}