{
  "contractName": "VeryCommon",
  "abi": [
    {
      "inputs": [
        {
          "internalType": "string",
          "name": "name_",
          "type": "string"
        },
        {
          "internalType": "string",
          "name": "symbol_",
          "type": "string"
        },
        {
          "internalType": "uint256",
          "name": "priceCollection_",
          "type": "uint256"
        },
        {
          "internalType": "uint256",
          "name": "pricePiece_",
          "type": "uint256"
        }
      ],
      "stateMutability": "nonpayable",
      "type": "constructor"
    },
    {
      "anonymous": false,
      "inputs": [
        {
          "indexed": true,
          "internalType": "address",
          "name": "owner",
          "type": "address"
        },
        {
          "indexed": true,
          "internalType": "address",
          "name": "approved",
          "type": "address"
        },
        {
          "indexed": true,
          "internalType": "uint256",
          "name": "tokenId",
          "type": "uint256"
        }
      ],
      "name": "Approval",
      "type": "event"
    },
    {
      "anonymous": false,
      "inputs": [
        {
          "indexed": true,
          "internalType": "address",
          "name": "owner",
          "type": "address"
        },
        {
          "indexed": true,
          "internalType": "address",
          "name": "operator",
          "type": "address"
        },
        {
          "indexed": false,
          "internalType": "bool",
          "name": "approved",
          "type": "bool"
        }
      ],
      "name": "ApprovalForAll",
      "type": "event"
    },
    {
      "anonymous": false,
      "inputs": [
        {
          "indexed": true,
          "internalType": "uint256",
          "name": "oldPrice",
          "type": "uint256"
        },
        {
          "indexed": true,
          "internalType": "uint256",
          "name": "newPrice",
          "type": "uint256"
        }
      ],
      "name": "ChangeCollectionPrice",
      "type": "event"
    },
    {
      "anonymous": false,
      "inputs": [
        {
          "indexed": true,
          "internalType": "uint256",
          "name": "oldPrice",
          "type": "uint256"
        },
        {
          "indexed": true,
          "internalType": "uint256",
          "name": "newPrice",
          "type": "uint256"
        }
      ],
      "name": "ChangePiecePrice",
      "type": "event"
    },
    {
      "anonymous": false,
      "inputs": [
        {
          "indexed": true,
          "internalType": "address",
          "name": "previousOwner",
          "type": "address"
        },
        {
          "indexed": true,
          "internalType": "address",
          "name": "newOwner",
          "type": "address"
        }
      ],
      "name": "OwnershipTransferred",
      "type": "event"
    },
    {
      "anonymous": false,
      "inputs": [
        {
          "indexed": false,
          "internalType": "address",
          "name": "account",
          "type": "address"
        }
      ],
      "name": "Paused",
      "type": "event"
    },
    {
      "anonymous": false,
      "inputs": [
        {
          "indexed": true,
          "internalType": "address",
          "name": "from",
          "type": "address"
        },
        {
          "indexed": true,
          "internalType": "address",
          "name": "to",
          "type": "address"
        },
        {
          "indexed": true,
          "internalType": "uint256",
          "name": "tokenId",
          "type": "uint256"
        }
      ],
      "name": "Transfer",
      "type": "event"
    },
    {
      "anonymous": false,
      "inputs": [
        {
          "indexed": false,
          "internalType": "address",
          "name": "account",
          "type": "address"
        }
      ],
      "name": "Unpaused",
      "type": "event"
    },
    {
      "anonymous": false,
      "inputs": [
        {
          "indexed": true,
          "internalType": "uint256",
          "name": "amount",
          "type": "uint256"
        }
      ],
      "name": "WithdrawnFunds",
      "type": "event"
    },
    {
      "inputs": [
        {
          "internalType": "address",
          "name": "to",
          "type": "address"
        },
        {
          "internalType": "uint256",
          "name": "tokenId",
          "type": "uint256"
        }
      ],
      "name": "approve",
      "outputs": [],
      "stateMutability": "nonpayable",
      "type": "function"
    },
    {
      "inputs": [
        {
          "internalType": "address",
          "name": "owner",
          "type": "address"
        }
      ],
      "name": "balanceOf",
      "outputs": [
        {
          "internalType": "uint256",
          "name": "",
          "type": "uint256"
        }
      ],
      "stateMutability": "view",
      "type": "function",
      "constant": true
    },
    {
      "inputs": [],
      "name": "baseURI",
      "outputs": [
        {
          "internalType": "string",
          "name": "",
          "type": "string"
        }
      ],
      "stateMutability": "view",
      "type": "function",
      "constant": true
    },
    {
      "inputs": [
        {
          "internalType": "uint256",
          "name": "tokenId",
          "type": "uint256"
        }
      ],
      "name": "getApproved",
      "outputs": [
        {
          "internalType": "address",
          "name": "",
          "type": "address"
        }
      ],
      "stateMutability": "view",
      "type": "function",
      "constant": true
    },
    {
      "inputs": [
        {
          "internalType": "address",
          "name": "owner",
          "type": "address"
        },
        {
          "internalType": "address",
          "name": "operator",
          "type": "address"
        }
      ],
      "name": "isApprovedForAll",
      "outputs": [
        {
          "internalType": "bool",
          "name": "",
          "type": "bool"
        }
      ],
      "stateMutability": "view",
      "type": "function",
      "constant": true
    },
    {
      "inputs": [],
      "name": "name",
      "outputs": [
        {
          "internalType": "string",
          "name": "",
          "type": "string"
        }
      ],
      "stateMutability": "view",
      "type": "function",
      "constant": true
    },
    {
      "inputs": [],
      "name": "owner",
      "outputs": [
        {
          "internalType": "address payable",
          "name": "",
          "type": "address"
        }
      ],
      "stateMutability": "view",
      "type": "function",
      "constant": true
    },
    {
      "inputs": [
        {
          "internalType": "uint256",
          "name": "tokenId",
          "type": "uint256"
        }
      ],
      "name": "ownerOf",
      "outputs": [
        {
          "internalType": "address",
          "name": "",
          "type": "address"
        }
      ],
      "stateMutability": "view",
      "type": "function",
      "constant": true
    },
    {
      "inputs": [],
      "name": "paused",
      "outputs": [
        {
          "internalType": "bool",
          "name": "",
          "type": "bool"
        }
      ],
      "stateMutability": "view",
      "type": "function",
      "constant": true
    },
    {
      "inputs": [],
      "name": "priceCollection",
      "outputs": [
        {
          "internalType": "uint256",
          "name": "",
          "type": "uint256"
        }
      ],
      "stateMutability": "view",
      "type": "function",
      "constant": true
    },
    {
      "inputs": [],
      "name": "pricePiece",
      "outputs": [
        {
          "internalType": "uint256",
          "name": "",
          "type": "uint256"
        }
      ],
      "stateMutability": "view",
      "type": "function",
      "constant": true
    },
    {
      "inputs": [
        {
          "internalType": "address",
          "name": "from",
          "type": "address"
        },
        {
          "internalType": "address",
          "name": "to",
          "type": "address"
        },
        {
          "internalType": "uint256",
          "name": "tokenId",
          "type": "uint256"
        }
      ],
      "name": "safeTransferFrom",
      "outputs": [],
      "stateMutability": "nonpayable",
      "type": "function"
    },
    {
      "inputs": [
        {
          "internalType": "address",
          "name": "from",
          "type": "address"
        },
        {
          "internalType": "address",
          "name": "to",
          "type": "address"
        },
        {
          "internalType": "uint256",
          "name": "tokenId",
          "type": "uint256"
        },
        {
          "internalType": "bytes",
          "name": "_data",
          "type": "bytes"
        }
      ],
      "name": "safeTransferFrom",
      "outputs": [],
      "stateMutability": "nonpayable",
      "type": "function"
    },
    {
      "inputs": [
        {
          "internalType": "address",
          "name": "operator",
          "type": "address"
        },
        {
          "internalType": "bool",
          "name": "approved",
          "type": "bool"
        }
      ],
      "name": "setApprovalForAll",
      "outputs": [],
      "stateMutability": "nonpayable",
      "type": "function"
    },
    {
      "inputs": [
        {
          "internalType": "bytes4",
          "name": "interfaceId",
          "type": "bytes4"
        }
      ],
      "name": "supportsInterface",
      "outputs": [
        {
          "internalType": "bool",
          "name": "",
          "type": "bool"
        }
      ],
      "stateMutability": "view",
      "type": "function",
      "constant": true
    },
    {
      "inputs": [],
      "name": "symbol",
      "outputs": [
        {
          "internalType": "string",
          "name": "",
          "type": "string"
        }
      ],
      "stateMutability": "view",
      "type": "function",
      "constant": true
    },
    {
      "inputs": [
        {
          "internalType": "uint256",
          "name": "index",
          "type": "uint256"
        }
      ],
      "name": "tokenByIndex",
      "outputs": [
        {
          "internalType": "uint256",
          "name": "",
          "type": "uint256"
        }
      ],
      "stateMutability": "view",
      "type": "function",
      "constant": true
    },
    {
      "inputs": [
        {
          "internalType": "address",
          "name": "owner",
          "type": "address"
        },
        {
          "internalType": "uint256",
          "name": "index",
          "type": "uint256"
        }
      ],
      "name": "tokenOfOwnerByIndex",
      "outputs": [
        {
          "internalType": "uint256",
          "name": "",
          "type": "uint256"
        }
      ],
      "stateMutability": "view",
      "type": "function",
      "constant": true
    },
    {
      "inputs": [
        {
          "internalType": "uint256",
          "name": "tokenId",
          "type": "uint256"
        }
      ],
      "name": "tokenURI",
      "outputs": [
        {
          "internalType": "string",
          "name": "",
          "type": "string"
        }
      ],
      "stateMutability": "view",
      "type": "function",
      "constant": true
    },
    {
      "inputs": [],
      "name": "totalSupply",
      "outputs": [
        {
          "internalType": "uint256",
          "name": "",
          "type": "uint256"
        }
      ],
      "stateMutability": "view",
      "type": "function",
      "constant": true
    },
    {
      "inputs": [
        {
          "internalType": "address",
          "name": "from",
          "type": "address"
        },
        {
          "internalType": "address",
          "name": "to",
          "type": "address"
        },
        {
          "internalType": "uint256",
          "name": "tokenId",
          "type": "uint256"
        }
      ],
      "name": "transferFrom",
      "outputs": [],
      "stateMutability": "nonpayable",
      "type": "function"
    },
    {
      "inputs": [
        {
          "internalType": "address",
          "name": "user",
          "type": "address"
        },
        {
          "internalType": "string",
          "name": "tokenURI",
          "type": "string"
        }
      ],
      "name": "tokenizeGeneratedArt",
      "outputs": [
        {
          "internalType": "uint256",
          "name": "",
          "type": "uint256"
        }
      ],
      "stateMutability": "payable",
      "type": "function",
      "payable": true
    },
    {
      "inputs": [
        {
          "internalType": "address payable",
          "name": "newOwner",
          "type": "address"
        }
      ],
      "name": "transferOwnership",
      "outputs": [],
      "stateMutability": "payable",
      "type": "function",
      "payable": true
    },
    {
      "inputs": [
        {
          "internalType": "uint256",
          "name": "newPrice",
          "type": "uint256"
        }
      ],
      "name": "changePriceCollection",
      "outputs": [],
      "stateMutability": "payable",
      "type": "function",
      "payable": true
    },
    {
      "inputs": [
        {
          "internalType": "uint256",
          "name": "newPrice",
          "type": "uint256"
        }
      ],
      "name": "changePricePiece",
      "outputs": [],
      "stateMutability": "payable",
      "type": "function",
      "payable": true
    },
    {
      "inputs": [],
      "name": "withdraw",
      "outputs": [],
      "stateMutability": "nonpayable",
      "type": "function"
    }
  ],
  "bytecode": "0x60806040523480156200001157600080fd5b506040516200268e3803806200268e833981810160405260808110156200003757600080fd5b81019080805160405193929190846401000000008211156200005857600080fd5b9083019060208201858111156200006e57600080fd5b82516401000000008111828201881017156200008957600080fd5b82525081516020918201929091019080838360005b83811015620000b85781810151838201526020016200009e565b50505050905090810190601f168015620000e65780820380516001836020036101000a031916815260200191505b50604052602001805160405193929190846401000000008211156200010a57600080fd5b9083019060208201858111156200012057600080fd5b82516401000000008111828201881017156200013b57600080fd5b82525081516020918201929091019080838360005b838110156200016a57818101518382015260200162000150565b50505050905090810190601f168015620001985780820380516001836020036101000a031916815260200191505b506040908152602082015191015190925090508383620001c86301ffc9a760e01b6001600160e01b03620002a816565b8151620001dd9060069060208501906200032d565b508051620001f39060079060208401906200032d565b506200020f6380ac58cd60e01b6001600160e01b03620002a816565b6200022a635b5e139f60e01b6001600160e01b03620002a816565b6200024563780e9d6360e01b6001600160e01b03620002a816565b5050600a805460ff19169055600d829055600e819055600c80546001600160a01b0319163390811790915560405181906000907f8be0079c531659141344cd1fd0a4f28419497f9722a3daafe3b4186f6b6457e0908290a35050505050620003d2565b6001600160e01b0319808216141562000308576040805162461bcd60e51b815260206004820152601c60248201527f4552433136353a20696e76616c696420696e7465726661636520696400000000604482015290519081900360640190fd5b6001600160e01b0319166000908152602081905260409020805460ff19166001179055565b828054600181600116156101000203166002900490600052602060002090601f016020900481019282601f106200037057805160ff1916838001178555620003a0565b82800160010185558215620003a0579182015b82811115620003a057825182559160200191906001019062000383565b50620003ae929150620003b2565b5090565b620003cf91905b80821115620003ae5760008155600101620003b9565b90565b6122ac80620003e26000396000f3fe6080604052600436106101815760003560e01c80635c975abb116100d157806395d89b411161008a578063b88d4fde11610064578063b88d4fde14610604578063c87b56dd146106d7578063e985e9c514610701578063f2fde38b1461073c57610181565b806395d89b4114610597578063a22cb465146105ac578063abfe3ab9146105e757610181565b80635c975abb146104455780636352211e1461045a5780636c0360eb1461048457806370a0823114610499578063856ad8f8146104cc5780638da5cb5b1461058257610181565b806318160ddd1161013e5780632f745c59116101185780632f745c591461038a5780633ccfd60b146103c357806342842e0e146103d85780634f6ccce71461041b57610181565b806318160ddd1461031d578063223649211461033257806323b872dd1461034757610181565b806301ffc9a714610186578063034b78d1146101ce57806306fdde03146101ed578063081812fc14610277578063095ea7b3146102bd57806312579917146102f6575b600080fd5b34801561019257600080fd5b506101ba600480360360208110156101a957600080fd5b50356001600160e01b031916610762565b604080519115158252519081900360200190f35b6101eb600480360360208110156101e457600080fd5b5035610785565b005b3480156101f957600080fd5b50610202610802565b6040805160208082528351818301528351919283929083019185019080838360005b8381101561023c578181015183820152602001610224565b50505050905090810190601f1680156102695780820380516001836020036101000a031916815260200191505b509250505060405180910390f35b34801561028357600080fd5b506102a16004803603602081101561029a57600080fd5b5035610899565b604080516001600160a01b039092168252519081900360200190f35b3480156102c957600080fd5b506101eb600480360360408110156102e057600080fd5b506001600160a01b0381351690602001356108fb565b34801561030257600080fd5b5061030b6109d6565b60408051918252519081900360200190f35b34801561032957600080fd5b5061030b6109dc565b34801561033e57600080fd5b5061030b6109ed565b34801561035357600080fd5b506101eb6004803603606081101561036a57600080fd5b506001600160a01b038135811691602081013590911690604001356109f3565b34801561039657600080fd5b5061030b600480360360408110156103ad57600080fd5b506001600160a01b038135169060200135610a4a565b3480156103cf57600080fd5b506101eb610a7b565b3480156103e457600080fd5b506101eb600480360360608110156103fb57600080fd5b506001600160a01b03813581169160208101359091169060400135610ae2565b34801561042757600080fd5b5061030b6004803603602081101561043e57600080fd5b5035610afd565b34801561045157600080fd5b506101ba610b19565b34801561046657600080fd5b506102a16004803603602081101561047d57600080fd5b5035610b22565b34801561049057600080fd5b50610202610b50565b3480156104a557600080fd5b5061030b600480360360208110156104bc57600080fd5b50356001600160a01b0316610bb1565b61030b600480360360408110156104e257600080fd5b6001600160a01b03823516919081019060408101602082013564010000000081111561050d57600080fd5b82018360208201111561051f57600080fd5b8035906020019184600183028401116401000000008311171561054157600080fd5b91908080601f016020809104026020016040519081016040528093929190818152602001838380828437600092019190915250929550610c19945050505050565b34801561058e57600080fd5b506102a1610c8d565b3480156105a357600080fd5b50610202610c9c565b3480156105b857600080fd5b506101eb600480360360408110156105cf57600080fd5b506001600160a01b0381351690602001351515610cfd565b6101eb600480360360208110156105fd57600080fd5b5035610e02565b34801561061057600080fd5b506101eb6004803603608081101561062757600080fd5b6001600160a01b0382358116926020810135909116916040820135919081019060808101606082013564010000000081111561066257600080fd5b82018360208201111561067457600080fd5b8035906020019184600183028401116401000000008311171561069657600080fd5b91908080601f016020809104026020016040519081016040528093929190818152602001838380828437600092019190915250929550610e7f945050505050565b3480156106e357600080fd5b50610202600480360360208110156106fa57600080fd5b5035610edd565b34801561070d57600080fd5b506101ba6004803603604081101561072457600080fd5b506001600160a01b0381358116916020013516611184565b6101eb6004803603602081101561075257600080fd5b50356001600160a01b03166111b2565b6001600160e01b0319811660009081526020819052604090205460ff165b919050565b600c546001600160a01b031633146107ce5760405162461bcd60e51b8152600401808060200182810382526022815260200180611ffe6022913960400191505060405180910390fd5b600d546040518291907fb6befc295f1cc343b9b69dd0e6ab2a9b8b15fbfd77a5d546085cbf8a815be1a990600090a3600e55565b60068054604080516020601f600260001961010060018816150201909516949094049384018190048102820181019092528281526060939092909183018282801561088e5780601f106108635761010080835404028352916020019161088e565b820191906000526020600020905b81548152906001019060200180831161087157829003601f168201915b505050505090505b90565b60006108a482611299565b6108df5760405162461bcd60e51b815260040180806020018281038252602c815260200180612175602c913960400191505060405180910390fd5b506000908152600460205260409020546001600160a01b031690565b600061090682610b22565b9050806001600160a01b0316836001600160a01b031614156109595760405162461bcd60e51b81526004018080602001828103825260218152602001806122256021913960400191505060405180910390fd5b806001600160a01b031661096b6112ac565b6001600160a01b0316148061098c575061098c816109876112ac565b611184565b6109c75760405162461bcd60e51b81526004018080602001828103825260388152602001806120c86038913960400191505060405180910390fd5b6109d183836112b0565b505050565b600e5481565b60006109e8600261131e565b905090565b600d5481565b610a046109fe6112ac565b82611329565b610a3f5760405162461bcd60e51b81526004018080602001828103825260318152602001806122466031913960400191505060405180910390fd5b6109d18383836113cd565b6001600160a01b0382166000908152600160205260408120610a72908363ffffffff61152b16565b90505b92915050565b60405147907f2ab5c36f576b9ee47c148ce0787ff7b169828dbfebb60de1c03a2727bbe9f00690600090a2600c546040516001600160a01b03909116904780156108fc02916000818181858888f19350505050158015610adf573d6000803e3d6000fd5b50565b6109d183838360405180602001604052806000815250610e7f565b600080610b1160028463ffffffff61153716565b509392505050565b600a5460ff1690565b6000610a758260405180606001604052806029815260200161212a602991396002919063ffffffff61155316565b60098054604080516020601f600260001961010060018816150201909516949094049384018190048102820181019092528281526060939092909183018282801561088e5780601f106108635761010080835404028352916020019161088e565b60006001600160a01b038216610bf85760405162461bcd60e51b815260040180806020018281038252602a815260200180612100602a913960400191505060405180910390fd5b6001600160a01b0382166000908152600160205260409020610a759061131e565b6000600e543414610c61576040805162461bcd60e51b815260206004820152600d60248201526c507269636520746f6f206c6f7760981b604482015290519081900360640190fd5b610c6b600b61156a565b6000610c77600b611573565b9050610c838482611577565b610a7281846116b1565b600c546001600160a01b031681565b60078054604080516020601f600260001961010060018816150201909516949094049384018190048102820181019092528281526060939092909183018282801561088e5780601f106108635761010080835404028352916020019161088e565b610d056112ac565b6001600160a01b0316826001600160a01b03161415610d6b576040805162461bcd60e51b815260206004820152601960248201527f4552433732313a20617070726f766520746f2063616c6c657200000000000000604482015290519081900360640190fd5b8060056000610d786112ac565b6001600160a01b03908116825260208083019390935260409182016000908120918716808252919093529120805460ff191692151592909217909155610dbc6112ac565b60408051841515815290516001600160a01b0392909216917f17307eab39ab6107e8899845ad3d59bd9653f200f220920489ca2b5937696c319181900360200190a35050565b600c546001600160a01b03163314610e4b5760405162461bcd60e51b8152600401808060200182810382526022815260200180611ffe6022913960400191505060405180910390fd5b600d546040518291907f10c978f441715ce340d103ed1887d6ca22954e2a280d0f00f1b91369dfd6cab190600090a3600d55565b610e90610e8a6112ac565b83611329565b610ecb5760405162461bcd60e51b81526004018080602001828103825260318152602001806122466031913960400191505060405180910390fd5b610ed784848484611714565b50505050565b6060610ee882611299565b610f235760405162461bcd60e51b815260040180806020018281038252602f8152602001806121f6602f913960400191505060405180910390fd5b60008281526008602090815260409182902080548351601f6002600019610100600186161502019093169290920491820184900484028101840190945280845260609392830182828015610fb85780601f10610f8d57610100808354040283529160200191610fb8565b820191906000526020600020905b815481529060010190602001808311610f9b57829003601f168201915b505060095493945050505060026000196101006001841615020190911604610fe1579050610780565b8051156110b25760098160405160200180838054600181600116156101000203166002900480156110495780601f10611027576101008083540402835291820191611049565b820191906000526020600020905b815481529060010190602001808311611035575b5050825160208401908083835b602083106110755780518252601f199092019160209182019101611056565b6001836020036101000a03801982511681845116808217855250505050505090500192505050604051602081830303815290604052915050610780565b60096110bd84611766565b604051602001808380546001816001161561010002031660029004801561111b5780601f106110f957610100808354040283529182019161111b565b820191906000526020600020905b815481529060010190602001808311611107575b5050825160208401908083835b602083106111475780518252601f199092019160209182019101611128565b6001836020036101000a03801982511681845116808217855250505050505090500192505050604051602081830303815290604052915050919050565b6001600160a01b03918216600090815260056020908152604080832093909416825291909152205460ff1690565b6001600160a01b0381166111f75760405162461bcd60e51b81526004018080602001828103825260268152602001806120526026913960400191505060405180910390fd5b600d54341461123d576040805162461bcd60e51b815260206004820152600d60248201526c507269636520746f6f206c6f7760981b604482015290519081900360640190fd5b600c546040516001600160a01b038084169216907f8be0079c531659141344cd1fd0a4f28419497f9722a3daafe3b4186f6b6457e090600090a3600c80546001600160a01b0319166001600160a01b0392909216919091179055565b6000610a7560028363ffffffff61182a16565b3390565b600081815260046020526040902080546001600160a01b0319166001600160a01b03841690811790915581906112e582610b22565b6001600160a01b03167f8c5be1e5ebec7d5bd14f71427d1e84f3dd0314c0f7b2291e5b200ac8c7c3b92560405160405180910390a45050565b6000610a7582611573565b600061133482611299565b61136f5760405162461bcd60e51b815260040180806020018281038252602c81526020018061209c602c913960400191505060405180910390fd5b600061137a83610b22565b9050806001600160a01b0316846001600160a01b031614806113b55750836001600160a01b03166113aa84610899565b6001600160a01b0316145b806113c557506113c58185611184565b949350505050565b826001600160a01b03166113e082610b22565b6001600160a01b0316146114255760405162461bcd60e51b81526004018080602001828103825260298152602001806121cd6029913960400191505060405180910390fd5b6001600160a01b03821661146a5760405162461bcd60e51b81526004018080602001828103825260248152602001806120786024913960400191505060405180910390fd5b611475838383611836565b6114806000826112b0565b6001600160a01b03831660009081526001602052604090206114a8908263ffffffff61188516565b506001600160a01b03821660009081526001602052604090206114d1908263ffffffff61189116565b506114e46002828463ffffffff61189d16565b5080826001600160a01b0316846001600160a01b03167fddf252ad1be2c89b69c2b068fc378daa952ba7f163c4a11628f55a4df523b3ef60405160405180910390a4505050565b6000610a7283836118b3565b60008080806115468686611917565b9097909650945050505050565b6000611560848484611992565b90505b9392505050565b80546001019055565b5490565b6001600160a01b0382166115d2576040805162461bcd60e51b815260206004820181905260248201527f4552433732313a206d696e7420746f20746865207a65726f2061646472657373604482015290519081900360640190fd5b6115db81611299565b1561162d576040805162461bcd60e51b815260206004820152601c60248201527f4552433732313a20746f6b656e20616c7265616479206d696e74656400000000604482015290519081900360640190fd5b61163960008383611836565b6001600160a01b0382166000908152600160205260409020611661908263ffffffff61189116565b506116746002828463ffffffff61189d16565b5060405181906001600160a01b038416906000907fddf252ad1be2c89b69c2b068fc378daa952ba7f163c4a11628f55a4df523b3ef908290a45050565b6116ba82611299565b6116f55760405162461bcd60e51b815260040180806020018281038252602c8152602001806121a1602c913960400191505060405180910390fd5b600082815260086020908152604090912082516109d192840190611f18565b61171f8484846113cd565b61172b84848484611a5c565b610ed75760405162461bcd60e51b81526004018080602001828103825260328152602001806120206032913960400191505060405180910390fd5b60608161178b57506040805180820190915260018152600360fc1b6020820152610780565b8160005b81156117a357600101600a8204915061178f565b6060816040519080825280601f01601f1916602001820160405280156117d0576020820181803883390190505b50859350905060001982015b831561182157600a840660300160f81b828280600190039350815181106117ff57fe5b60200101906001600160f81b031916908160001a905350600a840493506117dc565b50949350505050565b6000610a728383611bdc565b6118418383836109d1565b611849610b19565b156109d15760405162461bcd60e51b815260040180806020018281038252602b815260200180611fd3602b913960400191505060405180910390fd5b6000610a728383611bf4565b6000610a728383611cba565b600061156084846001600160a01b038516611d04565b815460009082106118f55760405162461bcd60e51b8152600401808060200182810382526022815260200180611fb16022913960400191505060405180910390fd5b82600001828154811061190457fe5b9060005260206000200154905092915050565b81546000908190831061195b5760405162461bcd60e51b81526004018080602001828103825260228152602001806121536022913960400191505060405180910390fd5b600084600001848154811061196c57fe5b906000526020600020906002020190508060000154816001015492509250509250929050565b60008281526001840160205260408120548281611a2d5760405162461bcd60e51b81526004018080602001828103825283818151815260200191508051906020019080838360005b838110156119f25781810151838201526020016119da565b50505050905090810190601f168015611a1f5780820380516001836020036101000a031916815260200191505b509250505060405180910390fd5b50846000016001820381548110611a4057fe5b9060005260206000209060020201600101549150509392505050565b6000611a70846001600160a01b0316611d9b565b611a7c575060016113c5565b6060611ba2630a85bd0160e11b611a916112ac565b88878760405160240180856001600160a01b03166001600160a01b03168152602001846001600160a01b03166001600160a01b0316815260200183815260200180602001828103825283818151815260200191508051906020019080838360005b83811015611b0a578181015183820152602001611af2565b50505050905090810190601f168015611b375780820380516001836020036101000a031916815260200191505b5095505050505050604051602081830303815290604052906001600160e01b0319166020820180516001600160e01b038381831617835250505050604051806060016040528060328152602001612020603291396001600160a01b038816919063ffffffff611da116565b90506000818060200190516020811015611bbb57600080fd5b50516001600160e01b031916630a85bd0160e11b1492505050949350505050565b60009081526001919091016020526040902054151590565b60008181526001830160205260408120548015611cb05783546000198083019190810190600090879083908110611c2757fe5b9060005260206000200154905080876000018481548110611c4457fe5b600091825260208083209091019290925582815260018981019092526040902090840190558654879080611c7457fe5b60019003818190600052602060002001600090559055866001016000878152602001908152602001600020600090556001945050505050610a75565b6000915050610a75565b6000611cc68383611bdc565b611cfc57508154600181810184556000848152602080822090930184905584548482528286019093526040902091909155610a75565b506000610a75565b600082815260018401602052604081205480611d69575050604080518082018252838152602080820184815286546001818101895560008981528481209551600290930290950191825591519082015586548684528188019092529290912055611563565b82856000016001830381548110611d7c57fe5b9060005260206000209060020201600101819055506000915050611563565b3b151590565b606061156084846000856060611db685611d9b565b611e07576040805162461bcd60e51b815260206004820152601d60248201527f416464726573733a2063616c6c20746f206e6f6e2d636f6e7472616374000000604482015290519081900360640190fd5b60006060866001600160a01b031685876040518082805190602001908083835b60208310611e465780518252601f199092019160209182019101611e27565b6001836020036101000a03801982511681845116808217855250505050505090500191505060006040518083038185875af1925050503d8060008114611ea8576040519150601f19603f3d011682016040523d82523d6000602084013e611ead565b606091505b50915091508115611ec15791506113c59050565b805115611ed15780518082602001fd5b60405162461bcd60e51b81526020600482018181528651602484015286518793919283926044019190850190808383600083156119f25781810151838201526020016119da565b828054600181600116156101000203166002900490600052602060002090601f016020900481019282601f10611f5957805160ff1916838001178555611f86565b82800160010185558215611f86579182015b82811115611f86578251825591602001919060010190611f6b565b50611f92929150611f96565b5090565b61089691905b80821115611f925760008155600101611f9c56fe456e756d657261626c655365743a20696e646578206f7574206f6620626f756e64734552433732315061757361626c653a20746f6b656e207472616e73666572207768696c65207061757365644f6e6c79206f776e65722063616e2063616c6c20746869732066756e6374696f6e2e4552433732313a207472616e7366657220746f206e6f6e20455243373231526563656976657220696d706c656d656e7465724f776e61626c653a206e6577206f776e657220697320746865207a65726f20616464726573734552433732313a207472616e7366657220746f20746865207a65726f20616464726573734552433732313a206f70657261746f7220717565727920666f72206e6f6e6578697374656e7420746f6b656e4552433732313a20617070726f76652063616c6c6572206973206e6f74206f776e6572206e6f7220617070726f76656420666f7220616c6c4552433732313a2062616c616e636520717565727920666f7220746865207a65726f20616464726573734552433732313a206f776e657220717565727920666f72206e6f6e6578697374656e7420746f6b656e456e756d657261626c654d61703a20696e646578206f7574206f6620626f756e64734552433732313a20617070726f76656420717565727920666f72206e6f6e6578697374656e7420746f6b656e4552433732314d657461646174613a2055524920736574206f66206e6f6e6578697374656e7420746f6b656e4552433732313a207472616e73666572206f6620746f6b656e2074686174206973206e6f74206f776e4552433732314d657461646174613a2055524920717565727920666f72206e6f6e6578697374656e7420746f6b656e4552433732313a20617070726f76616c20746f2063757272656e74206f776e65724552433732313a207472616e736665722063616c6c6572206973206e6f74206f776e6572206e6f7220617070726f766564a2646970667358221220214fe14a4ca77367e9676cdace30830d54986795ac44b54fc6cb7ffe9ca564c364736f6c63430006020033",
  "source": "// SPDX-License-Identifier: MIT\npragma solidity ^0.6.2;\n\nimport \"../node_modules/openzeppelin-solidity/contracts/token/ERC721/ERC721Pausable.sol\";\nimport \"../node_modules/openzeppelin-solidity/contracts/utils/Counters.sol\";\n\n/// @title An infinite art generator\n/// @author Milos Costantini\n/// @notice This contract is a poc\ncontract VeryCommon is ERC721Pausable {\n    using Counters for Counters.Counter;\n    Counters.Counter private _tokenIds;\n\n    /// @title The owner of the contract/collection\n    address payable public owner;\n\n    /// @title The price of the contract/collection\n    uint256 public priceCollection;\n\n    /// @title The price to generate a piece of the collection\n    uint256 public pricePiece;\n\n    modifier onlyOwner {\n        require(msg.sender == owner, \"Only owner can call this function.\");\n        _;\n    }\n\n    event OwnershipTransferred(\n        address indexed previousOwner,\n        address indexed newOwner\n    );\n    event ChangeCollectionPrice(\n        uint256 indexed oldPrice,\n        uint256 indexed newPrice\n    );\n    event ChangePiecePrice(uint256 indexed oldPrice, uint256 indexed newPrice);\n    event WithdrawnFunds(uint256 indexed amount);\n\n    constructor(\n        string memory name_,\n        string memory symbol_,\n        uint256 priceCollection_,\n        uint256 pricePiece_\n    ) public ERC721(name_, symbol_) {\n        //set a default price\n        priceCollection = priceCollection_;\n        pricePiece = pricePiece_;\n        //set contract owner\n        address msgSender = msg.sender;\n        owner = payable(msgSender);\n        emit OwnershipTransferred(address(0), msgSender);\n    }\n\n    /// @notice Tokenized the random string that will be used to recreate the image\n    /// @param user The addres who will receive the token\n    /// @param tokenURI Identifier of the token, in this case is a random string\n    /// @return The idem ID\n    function tokenizeGeneratedArt(address user, string memory tokenURI)\n        public\n        payable\n        returns (uint256)\n    {\n        require(msg.value == pricePiece, \"Price too low\");\n        _tokenIds.increment();\n\n        uint256 newItemId = _tokenIds.current();\n        _mint(user, newItemId);\n        _setTokenURI(newItemId, tokenURI);\n\n        return newItemId;\n    }\n\n    /// @notice Transfer ownership of the contract\n    /// @dev Was not possible to ovverride Ownable.sol because requires a certain price as msg value\n    /// @param newOwner New smart contract owner (The whole NFT Collection)\n    function transferOwnership(address payable newOwner) public payable {\n        require(\n            newOwner != address(0),\n            \"Ownable: new owner is the zero address\"\n        );\n        require(msg.value == priceCollection, \"Price too low\");\n        emit OwnershipTransferred(owner, newOwner);\n        owner = newOwner;\n    }\n\n    /// @notice Change Price of the smart contract (The NFT collection)\n    /// @param newPrice New price for the smart contract\n    function changePriceCollection(uint256 newPrice) public payable onlyOwner {\n        emit ChangeCollectionPrice(priceCollection, newPrice);\n        priceCollection = newPrice;\n    }\n\n    /// @notice Change Price to create a piece of the collection\n    /// @param newPrice New price for generating a piece\n    function changePricePiece(uint256 newPrice) public payable onlyOwner {\n        emit ChangePiecePrice(priceCollection, newPrice);\n        pricePiece = newPrice;\n    }\n\n    /// @notice All the money collected goes to the owner\n    function withdraw() public {\n        emit WithdrawnFunds(address(this).balance);\n        owner.transfer(address(this).balance);\n    }\n}\n",
  "sourcePath": "/Users/taacomi8/Projects/Personal/consenys-final-project/contracts/contracts/VeryCommon.sol",
  "compiler": {
    "name": "solc",
    "version": "0.6.2+commit.bacdbe57.Emscripten.clang"
  },
  "schemaVersion": "3.3.2",
  "updatedAt": "2020-12-22T22:30:46.026Z",
  "networkType": "ethereum",
  "devdoc": {
    "author": "Milos Costantini",
    "methods": {
      "approve(address,uint256)": {
        "details": "See {IERC721-approve}."
      },
      "balanceOf(address)": {
        "details": "See {IERC721-balanceOf}."
      },
      "baseURI()": {
        "details": "Returns the base URI set via {_setBaseURI}. This will be automatically added as a prefix in {tokenURI} to each token's URI, or to the token ID if no specific URI is set for that token ID."
      },
      "changePriceCollection(uint256)": {
        "params": {
          "newPrice": "New price for the smart contract"
        }
      },
      "changePricePiece(uint256)": {
        "params": {
          "newPrice": "New price for generating a piece"
        }
      },
      "getApproved(uint256)": {
        "details": "See {IERC721-getApproved}."
      },
      "isApprovedForAll(address,address)": {
        "details": "See {IERC721-isApprovedForAll}."
      },
      "name()": {
        "details": "See {IERC721Metadata-name}."
      },
      "ownerOf(uint256)": {
        "details": "See {IERC721-ownerOf}."
      },
      "paused()": {
        "details": "Returns true if the contract is paused, and false otherwise."
      },
      "safeTransferFrom(address,address,uint256)": {
        "details": "See {IERC721-safeTransferFrom}."
      },
      "safeTransferFrom(address,address,uint256,bytes)": {
        "details": "See {IERC721-safeTransferFrom}."
      },
      "setApprovalForAll(address,bool)": {
        "details": "See {IERC721-setApprovalForAll}."
      },
      "supportsInterface(bytes4)": {
        "details": "See {IERC165-supportsInterface}.     * Time complexity O(1), guaranteed to always use less than 30 000 gas."
      },
      "symbol()": {
        "details": "See {IERC721Metadata-symbol}."
      },
      "tokenByIndex(uint256)": {
        "details": "See {IERC721Enumerable-tokenByIndex}."
      },
      "tokenOfOwnerByIndex(address,uint256)": {
        "details": "See {IERC721Enumerable-tokenOfOwnerByIndex}."
      },
      "tokenURI(uint256)": {
        "details": "See {IERC721Metadata-tokenURI}."
      },
      "tokenizeGeneratedArt(address,string)": {
        "params": {
          "tokenURI": "Identifier of the token, in this case is a random string",
          "user": "The addres who will receive the token"
        },
        "returns": {
          "_0": "The idem ID"
        }
      },
      "totalSupply()": {
        "details": "See {IERC721Enumerable-totalSupply}."
      },
      "transferFrom(address,address,uint256)": {
        "details": "See {IERC721-transferFrom}."
      },
      "transferOwnership(address)": {
        "details": "Was not possible to ovverride Ownable.sol because requires a certain price as msg value",
        "params": {
          "newOwner": "New smart contract owner (The whole NFT Collection)"
        }
      }
    },
    "title": "An infinite art generator"
  },
  "userdoc": {
    "methods": {
      "changePriceCollection(uint256)": {
        "notice": "Change Price of the smart contract (The NFT collection)"
      },
      "changePricePiece(uint256)": {
        "notice": "Change Price to create a piece of the collection"
      },
      "tokenizeGeneratedArt(address,string)": {
        "notice": "Tokenized the random string that will be used to recreate the image"
      },
      "transferOwnership(address)": {
        "notice": "Transfer ownership of the contract"
      },
      "withdraw()": {
        "notice": "All the money collected goes to the owner"
      }
    },
    "notice": "This contract is a poc"
  }
}